:020000040800F2
:10000000B0050020C101000825240008E1210008F6
:1000100021240008A9020008592800080000000057
:100020000000000000000000000000002D24000877
:10003000C50200080000000029240008312400083F
:10004000DB010008DB010008DB010008DB01000820
:10005000DB010008DB010008DB010008DB01000810
:10006000DB010008DB010008DB010008DB01000800
:10007000DB010008DB010008DB010008DB010008F0
:10008000DB010008DB010008DB010008DB010008E0
:10009000AD020008B9020008DB010008DB0100081E
:1000A000DB010008DB010008DB010008DB010008C0
:1000B000DB010008DB010008DB010008DB010008B0
:1000C000DB010008DB010008DB010008DB010008A0
:1000D000DB010008DB010008DB010008DB01000890
:1000E000DB010008DB010008DB010008DB01000880
:1000F000DB010008DB010008DB010008DB01000870
:10010000DB010008DB010008DB010008DB0100085F
:10011000DB010008DB01000801250008DB01000805
:10012000DB010008DB010008DB010008DB0100083F
:10013000DB010008DB010008DB010008DB0100082F
:10014000DB010008DB010008DB010008DB0100081F
:10015000DB010008DB010008DB010008DB0100080F
:10016000DB010008DB010008DB010008DB010008FF
:10017000DB010008DB010008DB01000800000000D3
:10018000DB010008DB01000851260008DB01000844
:10019000DB010008DB010008DB010008DB010008CF
:1001A0000000000000000000DB010008DFF80CD0B8
:1001B00000F068F8004800473D290008B00500201D
:1001C0000648804706480047FEE7FEE7FEE7FEE7F1
:1001D000FEE7FEE7FEE7FEE7FEE7FEE7ED240008A8
:1001E000AD0100082DE9F05F0546002092469B46D0
:1001F00088460646814640241BE02846414647463D
:10020000224600F02FF853465A46C01A914110D3A7
:1002100011461846224600F016F82D1A67EB010821
:100220004F4622460120002100F00DF817EB00098F
:100230004E41201EA4F10104DFDC484631462A4627
:100240004346BDE8F09F202A04DB203A00FA02F181
:10025000002070479140C2F1200320FA03F31943B4
:1002600090407047202A04DB203A21FA02F0002156
:10027000704721FA02F3D040C2F1200291400843B6
:1002800019467047064C074D06E0E06840F0010350
:1002900094E8070098471034AC42F6D3FFF78AFF82
:1002A000E4290008042A0008FEE7000040F2740078
:1002B000C2F2000000F084B940F27400C2F2000003
:1002C00000F07EB97047000072B600BFFEE7000084
:1002D00090F82020013A012A08D8006800F11402A1
:1002E0000020136819431160704700BF00F1240219
:1002F00001204FF4802113681943116070470000FA
:1003000010B590F820E0D0F800C0AEF1010EBEF1BB
:10031000010FDCF808E011D81EF0E05F18D0CEF332
:10032000016E012000FA0EF018608B68D3B14868A6
:10033000CC6844EAC000034318E000BF00F1240188
:1003400001204FF480220B681A430A6010BD00BFE1
:1003500000F1240101204FF400120B681A430A60D7
:1003600010BD00BF0868CB6843EA40530CEB0E1089
:10037000C0F880310B69C0F88431097D012905D1AD
:1003800000F5C2710B6843F480730B605168C0F8CC
:100390008C11126800F5C071C0F88821002001227C
:1003A0000B681A430A6010BDB0B590F82020013ADE
:1003B000012A2FD846F20060C4F20000026842F021
:1003C00001020260026822F47C520260D1F814E05B
:1003D000CC694A6A0368012C43EA022202600EF0EB
:1003E0001F024FF0010303FA02F2C3696FEA020C25
:1003F00023EA0203C36113D02CBBC36803EA0C03D6
:10040000C360CB688C8844EA034300EBCE042364CA
:100410000B4611E0416A41F4802141620120B0BDE8
:10042000C3681343C3600B688C8844EA034300EB42
:10043000CE04236401F10C038C681B8843EA044357
:1004400000EBCE04636443688D6943EA0204D1F88B
:1004500010E0096A002D08BF03EA0C0444604369F8
:10046000BEF1000F43EA020408BF03EA0C040129AD
:10047000446102D1C1691143C161016821F00101E8
:1004800001600020B0BD00007047000010B590F87A
:100490002040013C012C7BD8D0F800C0002900F09E
:1004A0008180DCF81040A40700F081800CEB011C77
:1004B000DCF8B0410CF5D87E14F004049460DCF84C
:1004C000B04119BFE4085460640D1460DEF80040C8
:1004D0000CF5DA7E04F00204D460DCF8B4412407A1
:1004E0005ABFDEF8004004F00F0408241461DEF85F
:1004F00000400029C4F307249461DEF800404FEA6D
:1005000014445461DCF8B8211A70026802EB01123D
:10051000D2F8B8214FEA12225A70026802EB011297
:10052000D2F8B8214FEA12429A70026802EB011227
:10053000D2F8B8214FEA1262DA70026802EB0112B7
:10054000D2F8BC211A71026802EB0112D2F8BC2168
:100550004FEA12225A71026802EB0112D2F8BC2152
:100560004FEA12429A71026802EB0112D2F8BC21E2
:100570004FEA1262DA71006814BF00F1100100F155
:100580000C01002020220B681A430A6010BD00BF36
:1005900000F1240101204FF480220B681A430A6005
:1005A00010BD00BFDCF80C40A4077FF47FAF00F162
:1005B000240101204FF400120B681A430A6010BD99
:1005C0002DE9F04F81B0044600684669D0F80490E8
:1005D0008768D0F80CB0D0F810A0D0F81880F107D8
:1005E00004D1002530071DD424E000BFF90710D046
:1005F0000121BA07816009D4780700F1AF8038077C
:1006000000F1B680204600F029FA02E0204600F012
:1006100027FA0025F80500F18780F80300F1B18082
:10062000300707D51BF0100004D0206845F4007592
:100630001021C160700708D51BF0080005D02068A4
:100640000821C160204600F0A9F9B00706D520684E
:10065000C068800702D0204600F0A2F9700607D5D6
:100660001AF0100004D0206845F480651021016163
:10067000B00608D51AF0080005D0206808210161ED
:10068000204600F0B7F9F00606D52068006980071B
:1006900002D0204600F0B0F9B00308D519F01000E0
:1006A00005D0206810214160204600F0A7F9F00332
:1006B00008D519F0080005D02068082141602046BF
:1006C00000F0D8F9300440F19B805FEA497040F1B6
:1006D000948006F4807008EA102028435FEA88714D
:1006E000014648BF41F00201B20558BF01465FEA2A
:1006F00048700D4648BF45F00405700558BF0D46CB
:10070000300540F17A8018F0700000F076801038E3
:10071000000905286CD8DFE800F003595D616569C0
:1007200045F0080564E000BF20684FF48071BA0509
:1007300081600BD4780515D438051DD4204600F00F
:1007400091F9F8037FF56CAF1BE000BF204600F085
:100750008BF9F8037FF564AF13E000BF4FF4006539
:1007600058E700BF05F50055F8037FF559AF08E0DD
:100770004FF480554EE700BF05F58045F8037FF53F
:100780004FAF20684FF48031BA0381600AD47803F8
:1007900010D4380314D4204600F068F930073FF530
:1007A00041AF47E7204600F063F930073FF53AAF25
:1007B00040E700BF05F5004530073FF533AF39E7A7
:1007C00005F5803530073FF52DAF33E745F01005CF
:1007D0000EE000BF45F020050AE000BF45F04005EF
:1007E00006E000BF45F0800502E000BF45F48075DB
:1007F0002068816921F070018161206804214160D5
:1008000055B1606A40EA05012046616201B0BDE869
:10081000F04FFFF739BE00BF01B0BDE8F08F000018
:10082000B0B5C8B1044690F8200010B9204600F0D9
:1008300071F82068016841F00101016000F050FA90
:10084000054600BF20684168C90707D100F048FA93
:10085000401B0B28F6D312E00120B0BD016821F047
:100860000201016000F03CFA054600BF20684168C3
:1008700089070DD500F034FA401B0B28F6D3606AC7
:10088000052140F400306062012084F82010B0BDE2
:10089000217E0268012922F0800208BF80320260B6
:1008A000617E0268012922F0400208BF40320260E6
:1008B000A17E0268012922F0200208BF20320260D6
:1008C000E17E0268012922F0100218BF1032026096
:1008D000217F0268012922F0080208BF0832026065
:1008E000617F0268012922F0040208BF043202601D
:1008F000D4E901C2D4E9033561691A432A4311439B
:10090000ACF101021143C16100200121606284F851
:100910002010B0BD80B586B0016846F20040C4F238
:100920000000814202D006B080BD00BF002143F626
:1009300030020191C4F20202136900F5D43043F091
:1009400000731361136903F000730193019B01911C
:10095000136843F0080313601268022302F00802D0
:100960000192019ACDE9023109210322059101A9E1
:100970000192049200F0DAF814200021002200F025
:1009800033FA142000F01CFA15200021002200F098
:100990002BFA152000F014FA06B080BD7047000055
:1009A00010B5006846F20041C4F20001884218BF49
:1009B00010BD40F27000C2F20000016840F27414F1
:1009C0000131016040F2740040F27C12C2F2000476
:1009D000C2F20000C2F2000200212346FFF756FDDA
:1009E00040F20800C2F200002146BDE8104001F0CC
:1009F00035BF0000704700007047000070470000DE
:100A0000B0B5044690F8200001281DD1022084F8DA
:100A100020002068016821F00101016000F060F908
:100A2000054600BF20684068C00713D000F058F9A1
:100A3000401B0B28F6D3606A40F40030606205204A
:100A400084F820000120B0BD606A40F4002060629C
:100A50000120B0BD00206062B0BD00007047000002
:100A600070470000704700007047000070470000AA
:100A7000704700007047000070B5866D044600F0B6
:100A80002FF994F83510022928D105462068216CE9
:100A9000026822F016020260426922F0800242617E
:100AA00009B9A16C19B1016821F008010160016860
:100AB00021F00101016000BF20680068C00715D067
:100AC00000F00EF9401B0628F6D3202060650320B5
:100AD00084F83500002184F8341070BD80206065F2
:100AE0000120002184F8341070BD00BFE06D3F216B
:100AF00001FA00F0B060012084F8350000200021E8
:100B000084F8341070BD000090F83510022909D126
:100B1000052180F835100068016821F001010160AD
:100B20000020704780214165012070472DE9F04F7A
:100B300082B000F13E4242F2004502F1FF77C4F27A
:100B400002050A2243F6004E4FEAB726A84208BF24
:100B50000922C4F2010E092E38BF4FEAB72201253F
:100B6000002600274FF00008009208E008F1010875
:100B70000437B8F1100F06F1020600F0A7800C68E8
:100B800005FA08F914EA090FF0D0D1F804B00322ED
:100B90000BF0030CACF10104B240012C6FEA020A25
:100BA00010D88268CC6802EA0A02B440224382600C
:100BB0004268CBF3001422EA090204FA08F4224343
:100BC000426005E0BCF1030F02D14FF0030C20E0BE
:100BD000C2688C6802EA0A02B4402243BCF1020FE8
:100BE000C26016D16FF0030202EA58020244D2F842
:100BF00020C007F01C050F230C69AB402CEA03034F
:100C000004FA05F52B431362D1F804B001250BF06B
:100C1000030C02680CFA06F302EA0A021A431BF4F8
:100C2000403F0260A2D0002243F644030192C4F286
:100C300002031A684FF6084C42F480421A601A68A0
:100C4000CFF6FF7C02F480420192019A28F0030261
:100C5000724452F80C3007F00C050F24AC40A3434B
:100C6000009C04FA05F52B4342F80C30DEF808200E
:100C70004B6842EA090543F60C4CDC0258BF22EAF5
:100C80000905CEF80850C4F2010CDCF800209C02E3
:100C900042EA090558BF22EA0905CCF80050DEF8FF
:100CA00004209C0342EA090558BF22EA0905CEF850
:100CB0000450DEF80020DB0342EA090558BF22EAAF
:100CC0000905CEF80050012550E700BF02B0BDE88D
:100CD000F08F0000002A08BF0904816170470000FE
:100CE00040F2A810C2F200000068704740F2000015
:100CF00040F2A811C2F20000C2F2000100780A68B6
:100D0000104408607047000080B543F60040C4F20C
:100D10000200016841F400710160016841F48061E2
:100D20000160016841F480710160032000F088F8DF
:100D30000F2000F005F800F027F8002080BD00002B
:100D400070B540F20006C2F2000640F22C01327883
:100D5000C2F200014FF47A730968B3FBF2F2044661
:100D6000B1FBF2F1084600F081FB0F2C4FF00105BA
:100D700008D838B94FF0FF3021460022002500F096
:100D800033F87460284670BD82B0002043F64001FD
:100D90000190C4F202014A6842F480424A604A6803
:100DA00002F480420192019A0090086840F080505D
:100DB0000860086800F080500090009802B070470A
:100DC000002848BF7047C1B200F01F00012202FA9C
:100DD00000F04EF20012CEF2000242EAD10121F000
:100DE000030108607047000010B54EF60C5CCEF2AF
:100DF000000CDCF80030C3F3022E8EF00704042C44
:100E000028BF0424BEF103034FF0FF3E0EFA04F4A2
:100E100038BF0023A14399400EFA03F39A431143CC
:100E200000F00F0200F160430901043A03F5644346
:100E30006244002848BF02F10C03197010BD000085
:100E40004EF60C51CEF200010A684FF6FF031A402D
:100E500060F30A2242F0806040F0FD700860704745
:100E600070B582B00020019043F64000C4F2020049
:100E70000168402641F0805101600068C4F20E26EE
:100E800000F080500190019847F204050120C4F25F
:100E900000053060FFF724FF044600BF2868C00348
:100EA00006D4FFF71DFF001BB0F57A7FF6D90EE0E0
:100EB00001207060FFF714FF044600BF286880031C
:100EC00008D4FFF70DFF001BB0F57A7FF6D9032099
:100ED00002B070BD002002B070BD00002DE9F041ED
:100EE000002800F08B8043F60808C4F2020804468C
:100EF000D8F8F8030D4600F00F00884207D288F8B2
:100F0000F853D8F8F80300F00F00A84276D1206813
:100F1000810717D5410705D5D8F8001041F4E051F5
:100F2000C8F80010010705D5D8F8001041F4604159
:100F3000C8F80010D8F80010A26821F0F0011143A1
:100F4000C8F80010C0073FD1D8F8F80300F00F0030
:100F5000A84207D988F8F853D8F8F80300F00F0032
:100F6000A8424BD12068410707D5D8F80010E268A5
:100F700021F4E0511143C8F80010000708D5D8F853
:100F80000000216920F4604040EAC100C8F8000078
:100F900000F07CF8D8F8001042F6CC12C1F303112F
:100FA000C0F60002515C40F22C0220FA01F140F23E
:100FB0000400C2F200000068C2F200021160FFF7F4
:100FC000BFFE0020BDE8F0816068811E022907D2C3
:100FD00058F8081C89015CBF0120BDE8F08111E0D0
:100FE000012807D158F8081C89035CBF0120BDE81F
:100FF000F08107E058F8081C890703D40120BDE8F8
:10100000F08100BFD8F8001021F003010843C8F8B0
:101010000000FFF765FE064641F28837D8F8000069
:10102000616800F00C00B0EB810F8DD0FFF758FE27
:10103000801BB842F2D90320BDE8F08140F22C00B9
:1010400043F60801C2F20000C4F202010068096818
:1010500042F6DC12C1F38221C0F60002515CC840A6
:101060007047000040F22C0043F60801C2F2000075
:10107000C4F202010068096842F6DC12C1F3423191
:10108000C0F60002515CC8407047000010B543F63E
:101090000404C4F20204606800F00C0008280BD0BD
:1010A000042819BF42F20040C0F2F40041F60030BB
:1010B000C0F2B70010BD00BF206821682368490254
:1010C00041F60031C0F2B70100F03F02C3F38810CF
:1010D0005CBF42F20041C0F2F401A1FB0001002319
:1010E000FFF780F821680222C1F3014102EB4101C0
:1010F000B0FBF1F010BD00002DE9F04182B00028F6
:1011000068D00446007843F60006C007C4F2020621
:101110000BD0B06800F00C00042840F09F803068CD
:10112000800302D56068002854D0207880071AD543
:10113000B06810F00C0F09D0B06800F00C0008285F
:1011400040F0A6807068400200F1A28030688007FD
:1011500002D5E06801283DD13068216920F0F8000F
:1011600040EAC10030602078000737D4207840077B
:101170004CD4A56955B3B06800F00C00082840F0C5
:10118000BB80012D26D07068E16900F480028A429C
:1011900020D1216A00F03F028A421BD147F6C0717C
:1011A000626A0140B1EB821F14D1A16A4FF6FF734E
:1011B000C903994300F44032A1F580318A4209D134
:1011C000E16A00F07060B0EB016F03D1002002B063
:1011D000BDE8F081012002B0BDE8F081606900281F
:1011E00040F20000C4F2472076D00121C0F8801EF2
:1011F000FFF776FD054600BF706F8007B6D4FFF796
:101200006FFD401B0228F7D9DDE000BF306C10F005
:1012100080580AD100200190306C40F0805030643A
:10122000306C00F080500190019847F20007C4F242
:1012300000073868C00541D4386840F480703860D1
:10124000FFF74EFD054600BF3868C00536D4FFF7EE
:1012500047FD401B0228F7D9B5E000BFB06800F099
:101260000C00082803D1706840023FF558AF606851
:10127000B0F5803F07D0B0F5A02F40F08D803068EA
:1012800040F480203060306840F4803030608DE081
:10129000E068002852D00020C4F2472001210160FC
:1012A000FFF71EFD054600BF306880073FF554AFCD
:1012B000FFF716FD401B0228F6D984E0A06801283C
:1012C00005D005284ED1306F40F004003067306FF4
:1012D00040F0010030674FE00021C0F8801EFFF7AA
:1012E000FFFC0546706F80077FF540AFFFF7F8FC05
:1012F000401B0228F6D966E00027C4F247270020E9
:101300003866FFF7EDFC022D05460BD130688001F1
:101310005ED5FFF7E5FC401B02284FF00300F5D92E
:1013200055E700BF306880017FF550AFFFF7D8FC6C
:10133000401B02284FF00300F4D948E70020C4F214
:10134000472000210160FFF7CBFC0546306880078D
:101350007FF509AFFFF7C4FC401B02284FF00300E4
:10136000F4D934E7316F002821F001013167316F82
:1013700021F0040131674DD0FFF7B2FC054641F280
:10138000883700BF306F800756D4FFF7A9FC401B99
:10139000B842F7D917E000BF3168002821F4803146
:1013A0003160316821F4802131604FD0FFF798FC23
:1013B000054600BF306880033FF5B7AEFFF790FCED
:1013C000401B6428F6D9032002B0BDE8F08100BFBD
:1013D00004F11C052FCD084340EA8210D9034FF6D3
:1013E000FF729143A1F5803140EA056008437060C7
:1013F00001203866FFF774FC044600BF30688001A6
:101400003FF5E4AEFFF76CFC001B02284FF0030031
:10141000F4D9DCE6FFF764FC054641F2883700BFEB
:10142000306F800708D5FFF75BFC401BB8424FF0D8
:101430000300F5D9CBE600BFB8F1000F7FF499AEF9
:10144000306C20F08050306493E600BFFFF748FC1A
:10145000054600BF306880037FF567AEFFF740FCAC
:10146000401B64284FF00300F4D9B0E6411E002071
:10147000B0EB116F1CBF012070474EF21002CEF28C
:10148000000251604EF62351CEF20001F0230B70A2
:10149000072190601160704770470000704700009E
:1014A00010B590F83C20012A4FF0020251D080F88C
:1014B0003D200268D2F804E0D2F808C00C682EF093
:1014C0007003234341F2FF74C4F20004A24253604C
:1014D0000EDC40F2FF73C4F200039A4216DCB2F154
:1014E000804F2BD040F20043C4F2000324E000BF41
:1014F00040F2FF33C4F201039A4213DC41F60003C9
:10150000C4F200039A4219D0002313E040F600030E
:10151000C4F200039A4211D040F60043C4F2000323
:101520000AE000BF44F20003C4F201039A4205D06E
:1015300040F20043C4F201039A4204D149682CF0FE
:101540008003194391600121002280F83D1080F84A
:101550003C20104610BD0000002804BF0120704749
:1015600010B5044690F83D0028B9002084F83C00EE
:10157000204600F01FF8022084F83D002068211D5D
:1015800000F0C4FF012084F8460084F83E0084F88F
:101590003F0084F8400084F8410084F8420084F859
:1015A000430084F8440084F8450084F83D0000209E
:1015B00010BD000080B582B0006841F20001C4F2A5
:1015C0000001884216D00021C4F2010188420ED1E8
:1015D0000020019043F64000C4F20200416841F04F
:1015E00001014160406800F001000190019802B0E3
:1015F00080BD00BF0020009043F64000C4F202000E
:101600000168002241F0100101600068002100F033
:101610001000009000983620FFF7E6FB362002B05D
:10162000BDE88040FFF7CCBB90F83D1001291CBFFE
:1016300001207047022180F83D10006841F2FF72DE
:10164000C168C4F20002904241F00101C1600DDCAA
:1016500040F2FF71C4F20001884215DCB0F1804F06
:101660002AD040F20041C4F2000123E040F2FF31F1
:10167000C4F20101884213DC41F60001C4F200010A
:10168000884219D0002113E040F60001C4F20001A5
:10169000884211D040F60041C4F200010AE000BFC8
:1016A00044F20001C4F20101884205D040F2004139
:1016B000C4F20101884206D1816801F007010629C0
:1016C00004BF00207047016841F001010160002063
:1016D0007047000080B590F83C20012A4FF00202CC
:1016E00000F0C28080F83D20D0F800C04FF677723D
:1016F000DCF8083023EA0202CCF808200B684F2BF4
:1017000028DC1F2B44DD202B45D0302B43D0402B31
:1017100040F0AC80D1F804E0C968DCF82030DCF897
:10172000202022F00102CCF82020DCF8182022F042
:10173000F00242EA011123F00A0242EA0E02CCF85A
:101740001810CCF82020DCF8081041F0470121F0F7
:10175000300180E06F2B27DDB3F5005F48D0B3F593
:10176000805F7AD0702B40F08180D1E901E3C968B5
:10177000DCF8082043EA0E0322F47F4243EA012109
:101780001143CCF80810DCF8081041F0770162E052
:101790000BB1102B6AD1DCF8081021F0700119434D
:1017A00041F0070157E000BF502B35D0602B5DD1D1
:1017B000D1F804E0C968DCF82030DCF8202022F001
:1017C0001002CCF82020DCF8182022F4704242EA03
:1017D000013123F0A00242EA0E12CCF81810CCF826
:1017E0002020DCF8081041F0670121F0100132E000
:1017F000D1E901E3C968DCF8082043EA0E0322F4CA
:101800007F4243EA01211143CCF80810DCF80810AC
:1018100041F480411FE000BFD1F804E0C968DCF862
:101820002030DCF8202022F00102CCF82020DCF867
:10183000182022F0F00242EA011123F00A0242EAE3
:101840000E02CCF81810CCF82020DCF8081041F07B
:10185000570121F02001CCF808100022012180F866
:101860003D10002180F83C10104680BD0122F5E7B4
:101870007047000070B504460068C5680669B10786
:1018800016D515F0020113D06FF00201016101219C
:1018900021778069800703D02046FFF7E9FF05E044
:1018A000204600F08FF8204600F08EF800202077C8
:1018B000700719D515F0040016D020686FF00401E8
:1018C000016102212177806910F4407F04D0204615
:1018D000FFF7CEFF06E000BF204600F073F8204679
:1018E00000F072F800202077300717D515F00800B7
:1018F00014D020686FF00801016104212177C069CC
:10190000800703D02046FFF7B3FF05E0204600F034
:1019100059F8204600F058F800202077F00619D535
:1019200015F0100016D020686FF010010161082139
:101930002177C06910F4407F04D02046FFF798FF5C
:1019400006E000BF204600F03DF8204600F03CF8DD
:1019500000202077F00718BF15F0010002D13006F3
:1019600009D412E020686FF001010161204600F007
:10197000B7F8300609D515F0800006D020686FF062
:10198000800101612046FFF787FD700609D515F03B
:10199000400006D020686FF040010161204600F051
:1019A000BBF8B00658BF70BD15F0200008D0216804
:1019B0006FF0200220460A61BDE87040FFF76EBD5F
:1019C00070BD0000704700007047000041B1082959
:1019D00010D0042914BF00F1410200F13F020BE0D6
:1019E00090F83E20012A1CBF01207047022280F897
:1019F0003E2013E000F140021278012A1CBF0120B2
:101A000070470222082907D0042914BF80F841201A
:101A100080F83F2002E000BF80F84020006801F01D
:101A20001F010122036A02FA01F123EA01020262A4
:101A3000026A114341F2FF72C4F200029042016255
:101A40000CDC40F2FF71C4F20001884214DCB0F1FA
:101A5000804F37D040F2004116E000BF40F2FF3126
:101A6000C4F20101884215DC41F60001C4F2000114
:101A7000884227D0002115E040F60001C4F20001A1
:101A800088421FD040F60041C4F20001884219D0BC
:101A90001FE000BF44F20001C4F20101884211D0EE
:101AA00040F20041C4F20101884212D1416C40F27F
:101AB000004340F48062C4F2010341F400419A42C1
:101AC000416406D1816801F00701062904BF0020A6
:101AD0007047016841F0010101600020704700007B
:101AE00040F2E401C2F2000100680968884218BFB0
:101AF000704740F2740040F2580140F2A01240F2E8
:101B00009C13C2F20000C2F20001C2F20002C2F253
:101B10000003FEF7F5BB00007047000070470000AF
:101B200070470000B0B582B0044600680168C36821
:101B3000426901F02F05202D03F0200506D12DB1BB
:101B4000204602B0BDE8B04000F08EBD5FEA017CE7
:101B50001EBF02F0010E03F4907212EB0E0253D17D
:101B6000226B012A05D111F0100218BF13F01002E8
:101B700036D10A0622D513F080021FD094F8411006
:101B800021293FD1A168B1F5805F03D121690029E6
:101B900000F08282216A4A1C226209784160E18C4D
:101BA00001390A04E1842DD1C16821F08001C160AE
:101BB000C16841F04001C16002B0B0BD490621D505
:101BC00013F040011ED0C16821F04001C160202106
:101BD000204684F8411002B0BDE8B04000F0FEBAE3
:101BE00000210191016801914168019101994069C9
:101BF000400613D4A08DE18DE28D002A18BF8842E3
:101C000040F0CC8102B0B0BDCA0718BF13F4807297
:101C100040F0BE804A0700F1C180C6E0E06B016879
:101C20004A68A38D91B2002900F0A881994280F002
:101C3000A581E285C069B0F5807F00F09D802068B5
:101C400050E8030F216820F4807041E80302DAB104
:101C5000206850E8030F216820F4807041E80302F7
:101C600092B1206850E8030F216820F4807041E8A9
:101C700003024AB1206850E8030F216820F4807005
:101C800041E80302002ADAD1206850E8050F2168F4
:101C900020F0010041E80502BAB3206850E8050FC2
:101CA000216820F0010041E8050272B3206850E885
:101CB000050F216820F0010041E805022AB32068E1
:101CC00050E8050F216820F0010041E80502002AD4
:101CD000DAD11AE0206850E8050F216820F04000B2
:101CE00041E80502DAB1206850E8050F216820F0CC
:101CF000400041E8050292B1206850E8050F2168D4
:101D000020F0400041E805024AB1206850E8050F84
:101D1000216820F0400041E80502002ADAD12020A5
:101D200084F8420000202063206850E8030F2168F7
:101D300020F0100041E80302DAB1206850E8030FF8
:101D4000216820F0100041E8030292B1206850E8B9
:101D5000030F216820F0100041E803024AB1206817
:101D600050E8030F216820F0100041E80302002A28
:101D7000DAD1E06BFEF780FE02206063A08DE18D7A
:101D8000401A81B2204602B0BDE8B040FFF7C6BE9F
:101D9000626C42F0010262644A0706D5BEF1000F90
:101DA00003D0626C42F0020262648A0706D5BEF17B
:101DB000000F03D0626C42F004026264BCF1000FB9
:101DC00009D545EA0E02B2FA82F2520903D1626CD9
:101DD00042F008026264626C002A3FF413AF11F013
:101DE000200118BF002D03D0204600F03DFC2068E4
:101DF0004069616C00F0400001F00801401800F0FB
:101E0000B58000BF206850E8030F216820F490706F
:101E100041E80302BAB3206850E8030F216820F4B8
:101E2000907041E8030272B3206850E8030F216804
:101E300020F4907041E803022AB3206850E8030FB1
:101E4000216820F4907041E80302002ADAD11AE0F8
:101E5000206850E8050F216820F0010041E80502E4
:101E6000DAB1206850E8050F216820F0010041E850
:101E7000050292B1206850E8050F216820F00100AA
:101E800041E805024AB1206850E8050F216820F0BA
:101E9000010041E80502002ADAD1206B012824D193
:101EA000206850E8030F216820F0100041E8030289
:101EB000DAB1206850E8030F216820F0100041E8F3
:101EC000030292B1206850E8030F216820F010004F
:101ED00041E803024AB1206850E8030F216820F06E
:101EE000100041E80302002ADAD1202084F84200E1
:101EF0000020206320684069400649D5206850E8EA
:101F0000050F216820F0400041E80502DAB12068A1
:101F100050E8050F216820F0400041E8050292B129
:101F2000206850E8050F216820F0400041E80502D4
:101F30004AB1206850E8050F216820F0400041E8D0
:101F40000502002ADAD1E06B10B342F25D61C0F6FF
:101F500000010165FEF7D8FD00283FF453AEE06BA9
:101F6000016D02B0BDE8B040084700BF2046FFF752
:101F7000D7FD0020606402B0B0BD00BF8B427FF48B
:101F800041AEC069B0F5807F7FF43CAE02227CE0B8
:101F9000204602B0BDE8B040FFF7C2BD401A21683C
:101FA00051E8031F226821F4907142E80313DBB16A
:101FB000216851E8031F226821F4907142E803135D
:101FC00093B1216851E8031F226821F4907142E81F
:101FD00003134BB1216851E8031F226821F490716B
:101FE00042E80313002BDAD1216851E8051F22686B
:101FF00021F0010142E80513DBB1216851E8051F1A
:10200000226821F0010142E8051393B1216851E8EB
:10201000051F226821F0010142E805134BB1216838
:1020200051E8051F226821F0010142E80513002B49
:10203000DAD1202184F8421000212163216851E87F
:10204000031F226821F0100142E80313DBB121686D
:1020500051E8031F226821F0100142E8031393B1F5
:10206000216851E8031F226821F0100142E80313A0
:102070004BB1216851E8031F226821F0100142E8AA
:102080000313002BDAD1022281B22046626302B030
:10209000BDE8B040FFF742BD216A31F8022B6FF373
:1020A0005F22426021627AE5002804BF0120704768
:1020B00010B5044690F8410028B9002084F840008B
:1020C000204600F021F8242084F841002068C168EF
:1020D00021F40051C160204600F046FB20680169F0
:1020E00021F490410161416921F02A014161C168F7
:1020F00041F40051C16000202021606484F8411047
:1021000084F84210606310BD80B586B0016847F660
:102110000000C4F20000814202D006B080BD00BFC2
:10212000002143F630020191C4F20202136900F566
:10213000CC3043F080431361136903F08043019373
:10214000019B0191136843F010031360126802F0C1
:1021500010020192019A4FF4C07201920222CDE95D
:102160000221032104910821059101A9FEF7DEFC5B
:10217000522000210022FEF737FE5220FEF720FEFB
:1021800006B080BD90F84230202B1CBF0220704763
:1021900000294FF0010318BF002A01D118467047EB
:1021A00000230363816222218285C285436480F813
:1021B00042100169006819B1C16841F48071C160C1
:1021C0004169002341F001014161C16841F02001F2
:1021D000C16018467047000070470000704700005B
:1021E000FEE7000080B540F2740046F20041C2F202
:1021F0000000C4F200010322002380E80E0000F179
:102200000C014FF4102C4FF4401E81E808508361FC
:102210008383FEF705FB002808BF80BDBDE8804032
:10222000FEF752B82DE9F04387B0002743F630009F
:10223000CDE905770197C4F20200016841F200057B
:1022400041F0010101600168C4F2020501F00101E1
:102250000191019901970168002241F00801016094
:1022600001684FF4006801F008010191019901979C
:10227000016841F080010160016801F08001019175
:1022800001990197016841F002010160016801F0C4
:102290000201019101990197016841F0100101606B
:1022A000016801F01001019101990197016841F065
:1022B0002001016000684FF4006100F020000190EF
:1022C00001982846FEF706FD05F5806420464FF488
:1022D000804100224FF48049FEF7FCFC042002906C
:1022E0004FF4881002AECDE90307A5F540603146F2
:1022F000FEF71CFCCDF808804FF001082846314657
:10230000CDE903870597FEF711FC20463146CDE95C
:102310000298CDE90477FEF709FC07B0BDE8F08329
:1023200080B586B040F29C0000220021C2F200007D
:10233000C4F20102B32340F2E73C0591CDE9031159
:10234000CDE90011C0E90023C0E9021CC0E9041175
:102350008161FFF701F9002818BFFDF7B5FF4FF4C1
:102360008050029040F29C00C2F2000002A9FFF7E8
:10237000B1F9002818BFFDF7A7FF40F29C00C2F298
:1023800000006946FFF78CF8002818BFFDF79CFF96
:1023900006B080BD80B582B040F2E40041F2000298
:1023A0000021C2F20000C4F20002B32340F2E73C75
:1023B000CDE90011C0E90023C0E9021C8161FFF7EB
:1023C000CBF8002818BFFDF77FFF40F2E400C2F20F
:1023D00000006946FFF764F8002818BFFDF774FF96
:1023E00002B080BD80B540F22C1047F60001C2F269
:1023F0000000C4F2000100234FF00C0C4FF46142C6
:1024000080E80E00C0E90333C0E905C3C361FFF7EC
:102410004BFE002808BF80BDBDE88040FDF754BFDB
:10242000FEE70000FEE70000704700007047000074
:10243000FEF75CBC80B592B0002043F64001CDE9C8
:102440000A00CDE908000590CDE90300CDE90100BF
:102450000090C4F202010A6842F080520A600968E2
:1024600001F0805100910099009047F20000C4F201
:102470000000016841F44041016000684FF48001B0
:1024800000F4404000900098012006904FF4803006
:102490000D910621079002200E91B4210C90CDE9F8
:1024A0000F100420119006A8FEF726FE10B172B698
:1024B000FEE700BFFEF7D4FC10B172B6FEE700BF26
:1024C0000F20019002200290002003904FF4A050B2
:1024D00004904FF48050059001A80521FEF7FEFC02
:1024E00010B172B6FEE700BF12B080BD4EF6885044
:1024F000CEF20000016841F47001016070470000F5
:1025000040F2E400C2F20000FFF7B4B9B0B540F603
:10251000FF3E0568C4F2000E40F2004C7045C4F264
:10252000010C27DCB0F1804F31D040F20043C4F2FF
:10253000000398422BD040F60003C4F200039842F7
:1025400025D041F6FF73C4F2000398422ADC70459F
:102550003CDCB0F1804F5FD040F20043C4F2000396
:10256000984259D040F60003C4F20003984253D079
:1025700057E000BF40F60043C4F20003984206D083
:10258000604504D00023C4F201039842D9D14B68BE
:1025900025F0700243EA020541F6FF73C4F200031E
:1025A0009842D4DD43F6FF73C4F20103984221DC64
:1025B00042F20003C4F2000398422DD00023C4F27B
:1025C0000103984228D0604526D02AE040F6004317
:1025D000C4F2000398421FD041F60003C4F2000386
:1025E000984219D041F60043C4F20003984213D038
:1025F00017E000BF44F20003C4F2010398420BD07D
:1026000044F60003C4F20103984205D044F20043AB
:10261000C4F20103984204D1CB6825F4407243EA26
:1026200002050A688C684B69C46240F48064826267
:10263000644504BF09690163026825F0800142F026
:10264000040219430260012242610160B0BD000032
:1026500040F22C10C2F20000FFF764BA806B002138
:10266000C185FFF75DBA000081B090F842102229C1
:1026700021D183680246B3F5805F09D152F8281F43
:1026800052F8183C002B63D003685B680AE000BF77
:1026900052F8281F13B90369002BF5D003685B6853
:1026A00003F07F030B70116801311160C18D013996
:1026B0000A04C18502D001B0704700BF0168CA6832
:1026C00022F02002CA60CA6822F48072CA604A6995
:1026D00022F001024A61202180F84210002141636A
:1026E000026B012A3CD10163016851E8031F0268B3
:1026F00021F0100142E80313DBB1016851E8031F28
:10270000026821F0100142E8031393B1016851E817
:10271000031F026821F0100142E803134BB1016866
:1027200051E8031F026821F0100142E80313002B57
:10273000DAD101680A68D20606D5002200920A683A
:102740000092496800910099818D01B0FFF7E6B9C8
:10275000026852686FF35F2221F8022B8162A5E7BD
:1027600001B0FFF739BD000010B504460068D4E998
:1027700002C22369016921F4405111430161626978
:1027800043EA0C01E3691143C268194349F20C633F
:102790009A431143C1604169A26921F4407141F239
:1027A0000043114340F48062C4F201039A42416144
:1027B00002D1FEF757FC01E0FEF740FCE1696368D7
:1027C0001922B1F5004FA0FB020123D15A00DB0F03
:1027D000FDF708FD48F21F51C5F2EB11A0FB0123E4
:1027E0005A094FF69C73C0F6FF7303F1805302FB46
:1027F0000300322303EBC000A0FB01014FF4F8708B
:1028000000EA111000EB0210C1F3421108442168E4
:10281000886010BD9A009B0FFDF7E4FC48F21F5141
:10282000C5F2EB11A0FB01235A094FF69C73C0F6C9
:10283000FF7302FB0300322303EB0010A0FB010136
:10284000F02000EA511000EB0210C1F343110844DC
:102850002168886010BD0000FEE700000A889FED37
:10286000302A52BA00EE102AB8EEC00A9FED2D1A97
:1028700020EE020A80EE010A90ED041A9FED2B3A39
:1028800030EE411AB4EE431AF1EE10FA80ED030A6D
:1028900080ED051A02DD9FED242A06E09FED243A23
:1028A000B4EE431AF1EE10FA03DA31EE021A80EDBB
:1028B000051A90ED002A80ED040A81EE021A90EDCF
:1028C000012A4FF4804331EE020A80ED010A80EDC7
:1028D000021A4A889FED171A52BA00EE102AB8EE73
:1028E000C00A80ED060A8A889FED132A12BA03EB0C
:1028F000124200EE102AB8EEC00A20EE010A20EEC5
:10290000020ABBEE041A30EE010A80ED070A89794B
:1029100000EE101AB8EE400A80ED080A704700BFBA
:102920000000B44300F8FF450000B4C30000344386
:10293000000034C30000204200000038FEF7E4F934
:10294000FFF778FDFFF76EFCFFF7EAFCFFF74AFDA3
:10295000FFF748FCFFF71EFD40F29C00C2F20000AA
:102960000421FFF733F840F22C1040F29811C2F224
:102970000000C2F200010122FFF704FC40F27404DF
:10298000C2F2000440F23001C2F200012046FDF71D
:102990000BFD2046FEF734F820460221FDF798FC97
:1029A00040F2E400C2F20000FEF73EFEFEE702E065
:1029B00008C8121F08C1002AFAD1704770470020CA
:1029C00001E001C1121F002AFBD170470000000086
:1029D00000000000010203040607080900000000CF
:1029E00001020304082A0008000000207000000013
:1029F000AE290008782A0008700000204005000079
:102A0000BE290008000000000100000010000000C6
:102A10009A999941000000000000000000000000A9
:102A200000000000000000000000000000000000A6
:102A3000000000000024F40000000000000000007E
:102A40000000000000000000000000000000000086
:102A50000000000001000000010000000000000074
:102A60000002000000000000000000000000000064
:082A7000080000000000000056
:04000005080001AD41
:00000001FF
